:100000000C94AB000C944E090C94C8000C94960B05
:100010000C94C8000C94E80B0C94C8000C94C80015
:100020000C94C8000C9465100C94C8000C94C80083
:100030000C94C8000C94C8000C94C8000C94C80020
:100040000C940A0D0C94C8000C94C8000C94C800C1
:100050000C94C8000C94C8000C94C8000C94D900EF
:100060000C94C8000C94C8006A000B10120F0D0EFF
:100070001113740003070809060A050C047F00FC2D
:1000800060DAF266B6BEE0FEE68B00FA3E1A7ADE71
:100090008EF62E6078AE1CAA2A3ACEF30AB61E3827
:1000A00038B86E76DA736E6F6F7A6500623100620F
:1000B00033006232007A0057414B45524553455454
:1000C0000077616B6574696D65002100636C6F6317
:1000D0006B20696E6974007475726E696E67206F4B
:1000E0006E20627574746F6E73007475726E696ED3
:1000F00067206F6E20616C61726D73770076666445
:1001000020696E697400626F6F737420696E697420
:1001100000737065616B657220696E697400636C51
:100120006F636B20696E697400616C61726D206928
:100130006E697400646F6E65005365742064617944
:1001400000616C61726D206F666600616C61726D3A
:10015000206F6E21000011241FBECFEFD4E0DEBF60
:10016000CDBF12E0A0E0B1E0E0E8F8E202C0059007
:100170000D92A834B107D9F712E0A8E4B2E001C0AB
:100180001D92A73FB107E1F70E942F120C943E1475
:100190000C940000789410924E0210924D0220911F
:1001A0004D0230914E0228173907C8F30895A895DB
:1001B00008951F920F920FB60F9211242F933F9321
:1001C0004F935F936F937F938F939F93AF93BF935F
:1001D000EF93FF9300B605FE28C080915A02882352
:1001E00009F041C05B9A85B1877D85B95E988CB571
:1001F0008F7B8CBD80915802882361F06091F00262
:1002000085E090E00E9430146091F60286E090E074
:100210000E94301485EB90E061E00E94231115BC30
:100220001092E5021092680019C080915A0288234A
:10023000D1F080915802882361F06091F00285E04E
:1002400090E00E9430146091F60286E090E00E94F7
:10025000301487EB90E061E00E942311E0915C0292
:10026000F0915D020995FF91EF91BF91AF919F9140
:100270008F917F916F915F914F913F912F910F904F
:100280000FBE0F901F90189581E080935A025B9AE1
:100290008CB58F7B8CBD85B1877D85B95E9815BC8B
:1002A0001092E5021092680085B1897F85B98BB103
:1002B0008F7C8BB928988AB18F7C8AB920985A98FC
:1002C0005298E1E6F0E090E8908388E08083449AD9
:1002D00083B7876083BF8895908310824498089580
:1002E0008EE284B988E48AB989E187B984E38BB95D
:1002F00081E085B995E09093680080936B0080E37E
:1003000080936D000895CF93DF9384E090E00E9486
:100310002814D8E16D2F0E9487139093620285E024
:1003200090E00E942814CCE36C2F0E9487139093D6
:10033000F00286E090E00E9428146C2F0E94871340
:100340009093F60288E090E00E9428146C2F0E949F
:1003500087139093E40287E090E00E9428146D2FA9
:100360000E9487139093F20281E090E00E9428148B
:1003700064E60E9487139093E30282E090E00E947B
:1003800028146DE00E9487139093F50283E090E0BB
:100390000E9428148F718093E60291E09093580296
:1003A000E6EBF0E080818062808385E08093B1009D
:1003B000909370007894DF91CF9108959C018370A1
:1003C0009070009739F4C90164E670E00E94A013B0
:1003D000009761F4C90160E971E00E94A01321E077
:1003E00030E0009729F020E030E002C021E030E06A
:1003F000822F08958AE090E00E9428148093E502FD
:1004000085B1866085B982E3809380008091E502A2
:10041000882329F08091800080688093800088E1A3
:10042000809381008AEF90E090938700809386000C
:10043000809186009091870096958795909389008A
:100440008093880090938B0080938A0008950F9387
:100450001F93CF93DF93C0E8D0E0188201E810E04B
:10046000F8011082299A2A988AE090E00E94CA0036
:100470002A9A29988AE090E00E94CA0085B1897F73
:1004800085B982EB888388E1F8018083DF91CF9181
:100490001F910F910895CF93C62F9C0140E050E02B
:1004A00060E472E48FE090E00E94E91330938700EB
:1004B000209386008091860090918700969587957D
:1004C00090938B0080938A0090938900809388009A
:1004D00028EC30E01CC08091810082608093810014
:1004E00080ED97E0F9013197F1F70197D9F7809105
:1004F00081008D7F8093810085B1897F85B980EDF2
:1005000097E0F9013197F1F70197D9F7C150CC2362
:1005100011F785B1897F85B9CF9108958B3590F515
:100520008E3110F08E3111F48EE12DC0843210F432
:1005300083E229C0893210F488E225C08E3210F49B
:100540008DE221C0833310F482E31DC0883310F4A0
:1005500087E319C08D3310F48CE315C0823410F496
:1005600081E411C0873410F486E40DC08C3410F49B
:100570008BE409C0813510F480E505C0863510F4A0
:1005800085E501C08AE587BD83E084BD81E085BD46
:1005900084B5806884BD80916E00816080936E0018
:1005A00078940895282F562F842F3AE0632F0E94C5
:1005B0008713E92FF0E0E158FF4FE491E093EF0259
:1005C000E82FF0E0E158FF4FE491E093EE02109243
:1005D000ED02852F0E948713E92FF0E0E158FF4FCD
:1005E000E491E093EC02E82FF0E0E158FF4FE49152
:1005F000E093EB021092EA0280915B02882311F5EE
:10060000822F90E00B966CE070E00E94B41301968C
:100610006AE070E00E94B413FC01E158FF4FE491DE
:10062000E093E90261587F4FFB0164916093E80217
:100630008091E7022C3010F0816001C08E7F8093A2
:10064000E7020895822F68E10E948713892F632FA4
:100650000E948713E92FF0E0E158FF4FE491E09307
:10066000E902E82FF0E0E158FF4FE491E093E8025F
:100670000895AF92BF92CF92DF92EF92FF920F93C5
:100680001F93CF93DF93D0916202C091F00210913B
:10069000F6028AE08093480200E05AE0D52E6CE32F
:1006A000E62EF12C78E1A72EB12C80914B0280FD33
:1006B000CFC080914B02882321F480914A02882385
:1006C00019F0D092480205C080914802882309F4AD
:1006D0004BC080914B0281FF4AC010924B02002315
:1006E000B9F4D0916202C091F0021091F6028D2F00
:1006F0006C2F412F0E94D2028091E802816080938A
:10070000E8028091E90281608093E90201E02FC054
:10071000013089F48D2F6C2F412F0E94D2028091DD
:10072000EB0281608093EB028091EC028160809308
:10073000EC0202E01CC0023089F48D2F6C2F412F97
:100740000E94D2028091EE0281608093EE0280913D
:10075000EF0281608093EF0203E009C0D093620250
:10076000C093F0021093F6021092F40271C08091CF
:100770004B0282FD04C080914A0282FF96CF109204
:100780004B020130F9F48D2F90E00196B5010E94E3
:10079000B413C82ED82F6C2F412F0E94D202809103
:1007A000E80281608093E8028091E9028160809391
:1007B000E902C09262026091620284E090E00E94CD
:1007C00030143DC0023001F58C2F90E00196B70146
:1007D0000E94B413C82EC82F8D2F6C2D412F0E945C
:1007E000D2028091EB0281608093EB028091EC0257
:1007F00081608093EC026091F00285E090E00E94BD
:100800003014C092F0021BC00330C9F4812F90E075
:100810000196B7010E94B413C82E182F8D2F6C2F8C
:100820004C2D0E94D2028091EE0281608093EE02F4
:100830008091EF0281608093EF02C092F602809176
:100840004A0282FF32CF8BE490E00E94CA002DCF93
:10085000DF91CF911F910F91FF90EF90DF90CF909C
:10086000BF90AF900895282F862F1092EF0210921C
:10087000EE021092ED026AE00E948713E92FF0E089
:10088000E158FF4FE491E093EC02E82FF0E0E158EB
:10089000FF4FE491E093EB021092EA0280915B0239
:1008A000882311F52C3058F08091E7028160809305
:1008B000E702EAE9F0E0E491E093EE020AC0EBE837
:1008C000F0E0E491E093EE028091E7028E7F809366
:1008D000E702E7E9F0E0E491E093EF02822F90E095
:1008E0000B966CE070E005C0822F90E0479668E1BF
:1008F00070E00E94B41301966AE070E00E94B413A5
:10090000FC01E158FF4FE491E093E90261587F4F09
:10091000FB0164916093E8020895CF92DF92EF9219
:10092000FF920F931F93CF93DF930091F2021091E8
:10093000E4028AE080934802C0E0DAE0ECE3EE2EC5
:10094000F12CF8E1CF2ED12C80914B0280FDA2C07A
:1009500080914B02882321F480914A02882319F068
:10096000D093480217C080914802882399F41092CE
:10097000F4020093F2021093E4026091F20287E025
:1009800090E00E9430146091E40288E090E00E94C0
:10099000301480C080914B0281FF39C010924B020D
:1009A000CC2381F4802F612F0E9433048091E802D0
:1009B00081608093E8028091E90281608093E9027E
:1009C000C1E025C0C13081F4802F612F0E94330423
:1009D0008091EB0281608093EB028091EC02816058
:1009E0008093EC02C2E013C00093F2021093E40281
:1009F0006091F20287E090E00E9430146091E4027E
:100A000088E090E00E9430141092F40243C080917C
:100A10004B0282FD04C080914A0282FF95CF109262
:100A20004B02C130A9F4802F90E00196B6010E94DC
:100A3000B413082F612F0E9433048091E802816073
:100A40008093E8028091E90281608093E90219C0F5
:100A5000C230B9F4612F70E06F5F7F4FCB01B701F7
:100A60000E94B413682F182F802F0E9433048091A6
:100A7000EB0281608093EB028091EC0281608093B5
:100A8000EC0280914A0282FF5FCF8BE490E00E94EB
:100A9000CA005ACFDF91CF911F910F91FF90EF9035
:100AA000DF90CF900895282F862F4DE850E0FA016F
:100AB00094919093EF027196E491E093EE024E5E72
:100AC0005F4FFA0144914093ED026AE00E94871360
:100AD000E92FF0E0E158FF4FE491E093EC02E82FBA
:100AE000F0E0E158FF4FE491E093EB021092EA024C
:100AF000822F992787FD909597FF03C09095819548
:100B00009F4F6AE070E00E94B413FC01E158FF4F70
:100B1000E491E093E90261587F4FFB016491609397
:100B2000E8028091E70227FD02C08D7F01C082604C
:100B30008093E7020895BF92CF92DF92EF92FF92E7
:100B40000F931F93CF93DF931091460200915602AB
:100B50008AE080934802C0E0DAE0ACE3EA2EF12CB0
:100B6000B9E1CB2ED12C80914B0280FD9CC08091AD
:100B70004B02882321F480914A02882319F0D093F4
:100B8000480204C080914802882351F180914B02B1
:100B900081FF29C010924B02CC2381F4812F602F5A
:100BA0000E9453058091E80281608093E802809161
:100BB000E90281608093E902C1E015C0C13081F48F
:100BC000812F602F0E9453058091EB0281608093FA
:100BD000EB028091EC0281608093EC02C2E003C0E2
:100BE0001092F40260C080914B0282FD04C080919B
:100BF0004A0282FFB8CF10924B02C13051F5812FCB
:100C0000992787FD90950D96B6010E94B413182F71
:100C10001C50812F602F0E9453058091E802816053
:100C20008093E8028091E90281608093E902109349
:100C300046028DE090E0612F0E94301480E091E048
:100C40000E944811812F992787FD90950E948A1153
:100C500021C0C230F9F4202F30E02F5F3F4FC9018F
:100C6000B7010E94B413B82E082F812F6B2D0E945C
:100C700053058091EB0281608093EB028091EC023E
:100C800081608093EC02B09256028EE090E06B2D72
:100C90000E94301480914A0282FF65CF8BE490E07D
:100CA0000E94CA0060CFDF91CF911F910F91FF90FA
:100CB000EF90DF90CF90BF900895CF93DF93109285
:100CC000E702EC01A8EEB2E088E0E991EE23B9F08A
:100CD0009E2F91569A3120F4F0E0E65DFF4F07C059
:100CE0009E2F90539A3030F4F0E0E15BFF4FE49197
:100CF000EC9301C01C9281501196882331F7DF914B
:100D0000CF910895CF93DF93882309F084C0109288
:100D1000E70282E08093EA028093ED0280915B0219
:100D2000882371F58091F5022AE0622F0E949313C7
:100D3000E82FFF27E7FDF095E158FF4FE491E0939E
:100D4000E8028091F502622F0E949313E92FFF279A
:100D5000E7FDF095E158FF4FE491E093E9028091BF
:100D6000E602622F0E949313E82FFF27E7FDF0951C
:100D7000E158FF4FE491E093EB028091E6022DC031
:100D80008091E6022AE0622F0E949313E82FFF274A
:100D9000E7FDF095E158FF4FE491E093E802809180
:100DA000E602622F0E949313E92FFF27E7FDF095DB
:100DB000E158FF4FE491E093E9028091F502622F40
:100DC0000E949313E82FFF27E7FDF095E158FF4FAE
:100DD000E491E093EB028091F502622F0E9493135D
:100DE000E92FFF27E7FDF095E158FF4FE491E093ED
:100DF000EC028091E3022AE0622F0E949313E82F15
:100E0000FF27E7FDF095E158FF4FE491E093EE02F4
:100E10008091E302D8C0813009F0E1C0C091F502B1
:100E2000DD27C7FDD095E091E302FF27E7FDF095B0
:100E3000E053F84F8091F502833014F42C963197EB
:100E40002091E6021092EE021092EF02332727FD66
:100E500030952F5F3F4F2E0F3F1FCE01880F991FF8
:100E6000280F391FCF019695879596958795280F5E
:100E7000391FCF0160E971E00E94A013260F371FD0
:100E8000CF0164E670E00E94A013261B370B219669
:100E9000CE01880F991F8C0F9D1F880F991F6AE044
:100EA00070E00E94A013260F371FC90167E070E0B1
:100EB0000E94A0138330B1F0843028F4813061F0B7
:100EC000823039F40CC0853099F0853070F086306E
:100ED00091F089E191E011C080E291E00EC087E2DB
:100EE00091E00BC08FE291E008C088E391E005C07B
:100EF00081E491E002C088E491E00E945D0688EE02
:100F000093E00E94CA001092EB021092EC02109241
:100F1000ED028091F502863079F1873074F48330E8
:100F200011F184302CF48130C1F08230D9F518C031
:100F30008430E1F08530B1F51CC0893031F18A3060
:100F40002CF48730E1F0883069F51CC08B3019F142
:100F50008B30F4F08C3031F521C081E591E020C078
:100F600085E591E01DC089E591E01AC08FE591E02B
:100F700017C085E691E014C089E691E011C08EE6C5
:100F800091E00EC083E791E00BC089E791E008C0D3
:100F90008EE791E005C084E891E002C08AE891E024
:100FA0000E945D068091E6022AE0622F0E94931360
:100FB000E82FFF27E7FDF095E158FF4FE491E0931C
:100FC000EE028091E602622F0E949313E92FFF2721
:100FD000E7FDF095E158FF4FE491E093EF02DF91D8
:100FE000CF9108950F931F93CF93DF938AE080935F
:100FF0004802C0E00AE011E0D4E680914B02882369
:1010000021F480914A02882319F00093480205C018
:1010100080914802882309F466C080914B0280FDCC
:10102000F5C080914B0281FF61C010924B02CC232E
:10103000D1F480915B02882339F089E391E061E08B
:101040000E942311C2E001C0C1E080E00E9482063C
:101050008091E80281608093E8028091E9028160DA
:101060008093E90243C0C13029F480915B02882358
:1010700039F01EC0C23069F580915B028130A9F45D
:1010800080915B02882311F4C2E001C0C1E080E0DE
:101090000E9482068091EB0281608093EB02809136
:1010A000EC0281608093EC0221C0882319F011C00A
:1010B000813079F480E00E9482068091EE028160A6
:1010C0008093EE028091EF0281608093EF02C3E093
:1010D0000DC083E68093F40280E00E9482068CEDCE
:1010E00095E00E94CA001092F40290C080914B02D9
:1010F00082FD04C080914A0282FF7FCF10924B0292
:10110000C13061F58091F5028F5F8093F502809187
:10111000F5028D3014F0C093F50280E00E94820643
:1011200080915B02882359F48091E802816080936A
:10113000E8028091E90281608093E9020AC080910F
:10114000EB0281608093EB028091EC0281608093DE
:10115000EC026091F50282E090E04DC0C23061F592
:101160008091E6028F5F8093E6028091E6028032F2
:1011700014F01093E60280E00E94820680915B02E8
:10118000813059F48091E80281608093E802809177
:10119000E90281608093E9020AC08091EB028160DC
:1011A0008093EB028091EC0281608093EC0260916D
:1011B000E60283E090E01FC0C330F9F48091E302BF
:1011C0008F5F8093E3028091E3026D2F0E9493135F
:1011D0009093E30280E00E9482068091EE0281609B
:1011E0008093EE028091EF0281608093EF02609124
:1011F000E30281E090E00E94301480914A0282FF75
:10120000FCCE8CE390E00E94CA00F7CEDF91CF9134
:101210001F910F9108954A9B23C08091F10288236A
:10122000E1F581E08093F1021092500210924F029A
:1012300080E991E00E945D0689E08093F40288EEE7
:1012400093E00E94CA008091F2026091E4020E9441
:10125000330488EE93E00E94CA001092F4020895CD
:101260008091F1028823C9F01092F102109250028D
:1012700010924F028091F302882379F081E491E08B
:1012800061E00E9423111092F302809181008D7F12
:101290008093810085B1866085B908951F920F9271
:1012A0000FB60F9211242F933F934F935F936F9339
:1012B0007F938F939F93AF93BF93CF93EF93FF93BE
:1012C00089E60E940F11C9B178948AE090E00E94EB
:1012D000CA0089B1C4702C2F30E090E08470907007
:1012E0002817390711F40E940B09FF91EF91CF9154
:1012F000BF91AF919F918F917F916F915F914F912E
:101300003F912F910F900FBE0F901F9018958091D5
:101310005A028823D1F180E8809361001092610025
:1013200081EC90E061E00E94231110925A0280E467
:101330009CE90197F1F700B605FC27C00E947001F7
:1013400089E090E00E9428140E948E0281E58CBD05
:101350005B9843988AE090E00E9428148093E5020D
:101360000E94FA01A8950E940B0980E793E061E0D2
:101370000E944B0280EE96E061E00E944B0280ECFE
:101380009DE061E00E944B02A8950895CF93DF9302
:101390008AE0809348028BE090E00E9428148093BA
:1013A0005B02C0E0DAE001C0C0E080914B0288231C
:1013B00021F480914A02882319F0D093480204C096
:1013C000809148028823C9F080914B0280FD37C08C
:1013D00080914B0281FF14C010924B02CC2369F420
:1013E00080915B02882319F489E991E002C082EAC6
:1013F00091E00E945D06C1E003C01092F4021FC09C
:1014000080914B0282FFD1CF10924B02C13061F626
:1014100081E090915B02911180E080935B028823D0
:1014200019F489E991E002C082EA91E00E945D0628
:101430008BE090E060915B020E943014B6CFDF91A8
:10144000CF9108950F931F93CF93DF938AE08093FA
:1014500048028AE090E00E942814D82FC0E01AE0E9
:1014600001C0C0E080914B02882321F480914A02A0
:10147000882319F01093480204C080914802882301
:1014800069F180914B0280FD65C080914B0281FF24
:1014900028C010924B02CC2309F5DD2351F08BEAD2
:1014A00091E00E945D068091EC0281608093EC02E5
:1014B00004C084EB91E00E945D068091ED028160A2
:1014C0008093ED028091EE0281608093EE02809124
:1014D000EF0281608093EF02C1E003C01092F4023A
:1014E00039C080914B0282FFBDCF10924B02C130B8
:1014F00009F0B7CF01E0D11100E0D02F002351F067
:101500008BEA91E00E945D068091EC0281608093FD
:10151000EC0204C084EB91E00E945D068091ED0234
:1015200081608093ED028091EE0281608093EE02F3
:101530008091EF0281608093EF028AE090E0602F5B
:101540000E9430140E94FA0180EA9FE061E00E944C
:101550004B0288CFDF91CF911F910F9108958F9209
:101560009F92AF92BF92CF92DF92EF92FF920F9332
:101570001F93CF93DF938AE08093480289E090E045
:101580000E942814C82F20E0DAE01EE10AE5E02ED0
:1015900085E5F82E00E53BE4D32E46E4C42E51E465
:1015A000B52E6CE3A62E77E3972EE2E38E2E01C0D4
:1015B00020E080914B02882321F480914A02882305
:1015C00019F0D093480204C080914802882331F179
:1015D00080914B0280FD84C080914B0281FF26C028
:1015E00010924B022223D1F48DEB91E00E945D0614
:1015F0008C2F6D2F0E948713E82FF0E0E158FF4FEA
:10160000E491E160E093EE02E92FF0E0E158FF4F52
:10161000E491E160E093EF0221E008C01092F4024F
:1016200089E090E06C2F0E9430145AC080914B02E8
:1016300082FD04C080914A0282FFBBCF10924B0210
:10164000213009F0B5CFCB5FCC3508F0CEE18C2F3F
:101650006D2F0E948713E82FF0E0E158FF4FE491CF
:10166000E160E093EE02E92FF0E0E158FF4FE491F2
:10167000E160E093EF02CF3188F1C43210F483E2ED
:1016800003C0C93218F488E287BD93CFCE3210F47C
:101690008DE2FACFC33310F487BC8BCFC83310F47C
:1016A00097BC87CFCD3310F4A7BC83CFC23410F4DE
:1016B000B7BC7FCFC73410F4C7BC7BCFCC3410F499
:1016C000D7BC77CFC13510F407BD73CFC63510F442
:1016D000F7BC6FCFCB3511F0E7BC6BCF17BD69CF2F
:1016E000DF91CF911F910F91FF90EF90DF90CF90FE
:1016F000BF90AF909F908F90089588E592E090936F
:10170000500280934F0285EA90E061E00E9423112D
:1017100084EC91E00E945D0689E08093F40288EEFB
:1017200093E00E94CA001092F40208951F920F9253
:101730000FB60F9211242F933F934F935F936F93A4
:101740007F938F939F93AF93BF93EF93FF931092E9
:1017500068007894189923C080914C0281FD24C0C0
:101760008AE090E00E94CA0018991EC00E942702D9
:101770008091F302882319F00E947D0B15C080919F
:101780004C02826080934C0280914B028260809375
:101790004B0282EB90E061E00E94231105C0809132
:1017A0004C028D7F80934C0285E080936800FF910E
:1017B000EF91BF91AF919F918F917F916F915F91C9
:1017C0004F913F912F910F900FBE0F901F90189542
:1017D0001F920F920FB60F9211242F933F934F93A6
:1017E0005F936F937F938F939F93AF93BF93EF9389
:1017F000FF931092680078944D9920C080914C021C
:1018000080FD21C08AE090E00E94CA004D995CC032
:101810000E9427028091F302882391F580914C0267
:10182000816080934C0280914B02816080934B02D7
:101830008CEA90E061E00E94231105C080914C0287
:101840008E7F80934C024C9938C080914C0282FD6F
:101850003BC08AE090E00E94CA004C9935C082E00B
:10186000809349021BC04C9B19C00E9427028091A3
:101870004C028B7F80934C028091F302882319F0F5
:101880000E947D0B21C08FEA90E061E00E9423114D
:1018900080914B02846080934B0216C08091490274
:1018A000882309F780914C02846080934C028091D8
:1018B0004A02846080934A0207C010924A028091D3
:1018C0004C028B7F80934C0285E080936800FF91EF
:1018D000EF91BF91AF919F918F917F916F915F91A8
:1018E0004F913F912F910F900FBE0F901F90189521
:1018F00081E58CBD08958EBD0DB407FEFDCF089522
:10190000CF93DF9300D0CDB7DEB7F8946A837983A5
:101910000E947B0C7981872F0E947B0C6A81862F25
:101920000E947B0C409A409878940F900F90DF9122
:10193000CF9108958F929F92AF92BF92CF92DF92F4
:10194000EF92FF920F931F93CF93DF93C62F909147
:101950004502981730F4E92FF0E0E951FD4FC081BE
:10196000892FE82FF0E0EC58FF4FE49101E010E000
:1019700002C0000F111FEA95E2F7222717FD2095FC
:10198000322F40915E0250915F026091600270912F
:101990006102A0E0B0E0D0E081E0C82ED12CE12CC3
:1019A000F12CCE010A2E02C0959587950A94E2F794
:1019B00080FF13C0FD01E659FF4F449146015701D6
:1019C00004C0880C991CAA1CBB1C4A95D2F7B5010F
:1019D000A401082919292A293B291196A830B10503
:1019E00001F740935E0250935F0260936002709330
:1019F0006102C901B8010E94800CDF91CF911F9153
:101A00000F91FF90EF90DF90CF90BF90AF909F909D
:101A10008F9008951F920F920FB60F9211242F935B
:101A20003F934F935F936F937F938F939F93AF9366
:101A3000BF93EF93FF937894A89580915302909170
:101A4000540201969093540280935302813291057F
:101A500008F470C0109254021092530280914D020B
:101A600090914E02019690934E0280934D02809188
:101A700044022091550230E04091450290E0840FED
:101A8000911D8217930714F410925502809155020C
:101A9000E82FF0E0E951FD4F60810E949A0C80919F
:101AA00055028F5F809355028091F302882309F4D9
:101AB00041C080914F02909150020097D9F58091DA
:101AC00051029091520201969093520280935102DA
:101AD0008536910578F110925202109251028AEFE8
:101AE00090E090938700809386008091860090918B
:101AF00087009695879590938B0080938A009093AA
:101B00008900809388008091F302807F49F0809162
:101B1000F3028F708093F302809181008D7F08C063
:101B20008091F302806F8093F30280918100826044
:101B300080938100FF91EF91BF91AF919F918F9121
:101B40007F916F915F914F913F912F910F900FBEB9
:101B50000F901F9018958091C00080780895FC0127
:101B6000838180519281990F292F220F220F290FF3
:101B7000820F958190512481220F322F330F330F22
:101B8000320F930F50914602252F20513181230FA0
:101B90003081330F432F440F440F430F240F209302
:101BA00062022091560257FF02C0821B01C0820FC1
:101BB0008093F0029093F6020895FC012181205158
:101BC0008081880F982F990F990F980F290F938173
:101BD00090518281880F382F330F330F380F930FB6
:101BE000858180513481330F432F440F440F430FBD
:101BF000840F10925902109258022093E60290939B
:101C0000F5028093E30208959091F1029923B1F0D7
:101C10009091F202981791F48091E402861771F482
:101C2000442361F48BE491E061E00E94231181E0A0
:101C30008093F3021092500210924F020895809107
:101C4000F6028C3354F08091F6028C538093F602A6
:101C50008091F0028F5F8093F0028091F60287FFFF
:101C60000AC08091F602845C8093F6028091F002B3
:101C700081508093F0028091F0028C33B4F0809117
:101C8000F0028C538093F002809162028F5F809308
:101C900062026091620284E090E00E9430146091E0
:101CA000F00285E090E00E9430148091F00287FFFE
:101CB00016C08091F002845C8093F00280916202F1
:101CC0008150809362026091620284E090E00E9401
:101CD00030146091F00285E090E00E943014809111
:101CE0006202883184F0809162028851809362029E
:101CF0008091E6028F5F8093E6026091E60283E0C6
:101D000090E00E9430148091620287FF10C08091A1
:101D10006202885E809362028091E6028150809325
:101D2000E6026091E60283E090E00E943014809128
:101D3000E60280327CF58091E6028F3181F4809159
:101D4000F502843039F18091F502863019F18091E5
:101D5000F5028930F9F08091F5028B30D9F080914D
:101D6000E6028E3121F48091F502823099F0809163
:101D7000E6028D31E9F48091F5028230C9F4809158
:101D8000E302992787FD90958053984F0E94DE01CA
:101D9000882371F481E08093E6028091F5028F5FE1
:101DA0008093F5026091F50282E090E00E94301489
:101DB0008091E60218160CF449C08091F502863035
:101DC000D1F0873064F4833029F184301CF4813001
:101DD00094F433C0843079F0853079F510C08A30BE
:101DE0001CF4883044F40BC08B3029F08B303CF06D
:101DF0008C3019F504C08091E602815E03C08091A9
:101E0000E602825E8093E6028091F5028150809323
:101E1000F50216C08091E302992787FD90958053C3
:101E2000984F0E94DE01882321F08091E602835EB4
:101E3000E9CF8091E602845EE5CF81E08093E602FF
:101E40006091F50282E090E00E9430148091F502EA
:101E50008D3074F08091E3028F5F8093E30281E024
:101E60008093F5026091E30281E090E00E943014DB
:101E70008091F5021816B4F08091F502845F80938A
:101E8000F5028091E30281508093E3026091F502B4
:101E900082E090E00E9430146091E30281E090E0E3
:101EA0000E94301408958F929F92BF92CF92DF923A
:101EB000EF92FF920F931F93CF93DF93CDB7DEB7CF
:101EC0002F970FB6F894DEBF0FBECDBF8091C6002E
:101ED000898390915702992349F4843209F0E3C031
:101EE00081E08093570283E692E0D6C003E612E0D9
:101EF000F80101900020E9F73197E01BF10BE03881
:101F0000F105C8F4E630F10589F4C8016DEC71E023
:101F10000E940F14009721F482E080935702BBC007
:101F200080E8F80111928A95E9F7B2C08A3209F087
:101F3000B2C0923019F080E8D801A7C084ED91E0DA
:101F40000E944811C8010E944811C8016CE270E06B
:101F50000E940414DE011996FC01319626E00190DE
:101F60000D922150E1F71F8608E010E001966CE227
:101F700070E00E94041401501040C1F7DE01129677
:101F8000FC01319686E001900D928150E1F71886B0
:101F90002E8130E0C901880F991F53E0220F331FB3
:101FA0005A95E1F7820F931F2F81820F911D805167
:101FB00092408A3091050CF464C0F0906202009166
:101FC000F0028091F602CE0109960E94AF0DCE017B
:101FD00002960E94DD0D0E941F0E209162028091E8
:101FE000F0024CE3240290011124992787FD90957B
:101FF000280F391F8F2C9924F49EA0011124400F23
:10200000511DE0906202F090F002C901841B950B13
:1020100097FF17C0F901E056FA4FE417F50788F06B
:10202000BC0160567A4F77FF03C0709561957F4F72
:10203000909581959F4F681779071CF4B8E1EB0ED6
:102040009F014217530788F01CC08B2D6F2D40E075
:102050000E94040EFA9402C0BE2CB01AF7FEF5CF0F
:102060000F5F1F4F3BE3F32E06C000E010E0CE2CC5
:10207000DD24C7FCD094C601801B910B88159905FF
:102080005CF780E8E3E6F2E0DF011D928A95E9F76C
:102090001092570208C0C801BE016F5F7F4F41E038
:1020A00050E00E9418142F960FB6F894DEBF0FBEB2
:1020B000CDBFDF91CF911F910F91FF90EF90DF90F7
:1020C000CF90BF909F908F9008951F920F920FB660
:1020D0000F9211242F933F934F935F936F937F93AE
:1020E0008F939F93AF93BF93EF93FF9380E8809379
:1020F0006100109261008091F6028F5F8093F6027A
:102100000E941F0E80915A02882309F052C08091CC
:10211000F402882301F580915902882349F08091C7
:10212000F60280FF05C08BE392E00E945D0608C0C6
:10213000809162026091F0024091F6020E94D20208
:102140009091F1028091E702992311F0826001C021
:102150008D7F8093E702809162026091F00240914E
:10216000F6020E94040E80914802882329F0809193
:10217000480281508093480280914902882329F0C7
:102180008091490281508093490280914F02909141
:102190005002009771F001979093500280934F0284
:1021A0009091E70280FF02C0926001C09D7F9093F2
:1021B000E702FF91EF91BF91AF919F918F917F9136
:1021C0006F915F914F913F912F910F900FBE0F90A4
:1021D0001F90189505C081509EE100009150E9F7CD
:1021E0008823C9F7089548EC50E009C020E137E2A0
:1021F000FA013197F1F721503040D1F7815088230F
:10220000A9F708959093C5008093C40088E1809356
:10221000C1008EE08093C200519A50980895909129
:10222000C00095FFFCCF8093C60080E090E0089549
:102230008091C00087FFFCCF8091C60008958091F7
:10224000C00080780895EF92FF921F93CF93DF93A1
:102250000F92CDB7DEB77C0110E005C069830E9404
:102260000F111F5F6981F701E10FF11D8491882330
:10227000A9F7662331F08AE00E940F118DE00E94D9
:102280000F110F90DF91CF911F91FF90EF90089564
:10229000CF93DF93EC0102C00E940F118991882334
:1022A000D9F7DF91CF910895CF93C82F82958F7082
:1022B0008A3010F4805D01C0895A0E940F112C2FC2
:1022C00030E02F7030708C2F8F702A30310514F46D
:1022D000805D01C0895A0E940F11CF910895CF935C
:1022E000C82F892F0E9454118C2F0E945411CF9116
:1022F0000895CF92DF92EF92FF926B017C01C701AC
:102300000E946F11C6010E946F11FF90EF90DF9045
:10231000CF900895BF92CF92DF92EF92FF920F93EA
:102320001F93CF93DF938C0125E0E22EF12C20E068
:10233000C0E1D7E23AE0C32ED12CC801BE010E9411
:10234000A013B62E662329F4222319F4C130D10537
:1023500029F48B2D805D0E940F1121E06B2D70E020
:102360006C9FC0016D9F900D7C9F900D1124081BE8
:10237000190BCE01B6010E94A013EB010894E108ED
:10238000F108E114F104C9F6DF91CF911F910F918B
:10239000FF90EF90DF90CF90BF9008954F925F92A3
:1023A0006F927F928F929F92AF92BF92CF92DF9265
:1023B000EF92FF920F931F93CF93DF934B015C013A
:1023C0000AE010E0C0E0C12C4AECD42E4AE9E42E29
:1023D0004BE3F42E5AE0452E512C612C712CC50193
:1023E000B401A70196010E94C713D22F222341F402
:1023F000CC2331F481E0C816D104E104F10429F4BE
:102400008D2F805D0E940F11C1E06D2F70E080E084
:1024100090E0A70196010E946813DC01CB01881AA5
:10242000990AAA0ABB0AC701B601A30192010E9438
:10243000C71369017A010150104089F6DF91CF91ED
:102440001F910F91FF90EF90DF90CF90BF90AF90D2
:102450009F908F907F906F905F904F90089515BCE4
:10246000569A5E9884B714BE90E00E946F1188E17E
:102470000FB6F89480936000109260000FBE2FE0BA
:1024800088E190E00FB6F894A895809360000FBEA5
:1024900020936000A895C1E0C093590210925802A1
:1024A00084E390E00E9402118AEC90E061E00E94D7
:1024B000231187ED91E00E94481188EE91E00E947F
:1024C000481180E890E00E948A1184ED91E00E941A
:1024D000481188E480BF80ED97E00197F1F700B6DE
:1024E00005FE0BC080B7806180BF8CEC90E061E09E
:1024F0000E9423110E9483015AC00E9470015B98C0
:1025000087ED90E061E00E9423118AEE90E061E0A7
:102510000E942311C0936900CDBB1092F4028DEF8D
:1025200090E061E00E94231181E58CBD86E091E09E
:1025300061E00E94231189E090E00E9428140E942B
:102540008E0278948DE090E00E94281480934602D9
:10255000845F893110F0109246028EE090E00E9474
:102560002814809356028D3310F0109256028BE09F
:1025700090E00E94281480935B0281E191E061E089
:102580000E9423110E94FA0180EA9FE061E00E940C
:102590004B028EE191E061E00E9423110E948301D1
:1025A00089E291E061E00E9423110E940B0984E31B
:1025B00091E061E00E94231163E6E62E7BE0F72EB6
:1025C00008E017E0D6E0C5E0A89500B605FE03C018
:1025D0000E944401F9CF80914B0280FF5BC01092B2
:1025E0004B028091F402853089F1863038F48330D3
:1025F00021F18430B0F4882351F061C0873009F4B0
:1026000040C08730A8F18B3009F059C028C084E061
:102610008093F4028BEF91E00E945D060E948D048E
:1026200050C083E08093F40285E092E00E945D0652
:102630000E9439031092590244C0C093F4028EE004
:1026400092E00E945D060E94F2073BC0F092F40205
:1026500087E192E00E945D060E949B0532C0D09304
:10266000F40280E292E00E945D060E94AF0A29C057
:102670001093F40289E292E00E945D060E94220A11
:1026800020C00093F40282E392E00E945D060E9463
:10269000C60917C080914B0281FD04C080914B0296
:1026A00082FF0FC010924B02E092F40281E00E9480
:1026B0008206A8958CED95E00E94CA00A89510921C
:1026C000F4028091C00087FF7FCF0E94530F7CCF20
:1026D000629FD001739FF001829FE00DF11D649F06
:1026E000E00DF11D929FF00D839FF00D749FF00D92
:1026F000659FF00D9927729FB00DE11DF91F639F33
:10270000B00DE11DF91FBD01CF0111240895991BE2
:1027100079E004C0991F961708F0961B881F7A95D8
:10272000C9F78095089587FB082E062687FD8195B9
:1027300067FD6195ECDF0EF4919507FC8195089596
:10274000AA1BBB1B51E107C0AA1FBB1FA617B707D7
:1027500010F0A61BB70B881F991F5A95A9F78095F3
:102760009095BC01CD01089597FB092E07260AD04C
:1027700077FD04D0E5DF06D000201AF4709561954E
:102780007F4F0895F6F7909581959F4F0895A1E2A8
:102790001A2EAA1BBB1BFD010DC0AA1FBB1FEE1FDB
:1027A000FF1FA217B307E407F50720F0A21BB30B26
:1027B000E40BF50B661F771F881F991F1A9469F7A2
:1027C00060957095809590959B01AC01BD01CF01FE
:1027D000089597FB092E05260ED057FD04D0D7DFAC
:1027E0000AD0001C38F450954095309521953F4F04
:1027F0004F4F5F4F0895F6F79095809570956195CE
:102800007F4F8F4F9F4F0895FC018191861721F0D4
:102810008823D9F7992708953197CF010895FB01AF
:10282000DC018D91019080190110D9F3990B089565
:10283000FB01DC010D900020E9F711974150504059
:1028400028F0019000200D92C9F708951C92089578
:10285000F999FECF92BD81BDF89A992780B5089568
:10286000262FF999FECF1FBA92BD81BD20BD0FB6AC
:10287000F894FA9AF99A0FBE01960895F894FFCF4A
:102880000A0D54696D657A6F6E65206F66667365B3
:102890007420686F75723A090073756E646179000F
:1028A0006D6F6E646179007475657364617900772A
:1028B00065646E73646179007468757273646179BC
:1028C000006672696461790073617475726461791C
:1028D000006A616E00666562006D61726368006126
:1028E0007072696C006D6179006A756E65006A7559
:1028F0006C790061756773740073657074006F6341
:10290000746F62006E6F76656D00646563656D005F
:10291000616C61726D206F6E007573612D3132686C
:1029200072006575722D3234687200766F6C2068A3
:1029300069676800766F6C20206C6F77006272693F
:1029400074652000736E6F6F7A696E67002447505C
:10295000524D43000A0D000A0D48656C6C6F2057FC
:102960006F726C64210A0D000A0D4275666665720D
:102970002073697A652069733A0900736574206170
:102980006C61726D007365742074696D65007365A8
:1029900074206461746500736574207A6F6E6500DD
:1029A00073657420627269740073657420766F6C4D
:1029B0002000736574207265676E0020202020203F
:0829C000202020000208FA00AB
:00000001FF
